{
  "_format": "hh-sol-artifact-1",
  "contractName": "UseRemoveLiquidity",
  "sourceName": "contracts/UseRemoveLiquidity.sol",
  "abi": [
    {
      "inputs": [
        {
          "internalType": "address",
          "name": "_uniswapRouter",
          "type": "address"
        }
      ],
      "stateMutability": "nonpayable",
      "type": "constructor"
    },
    {
      "inputs": [],
      "name": "owner",
      "outputs": [
        {
          "internalType": "address",
          "name": "",
          "type": "address"
        }
      ],
      "stateMutability": "view",
      "type": "function"
    },
    {
      "inputs": [],
      "name": "removeCount",
      "outputs": [
        {
          "internalType": "uint256",
          "name": "",
          "type": "uint256"
        }
      ],
      "stateMutability": "view",
      "type": "function"
    },
    {
      "inputs": [
        {
          "internalType": "address",
          "name": "_tokenA",
          "type": "address"
        },
        {
          "internalType": "address",
          "name": "_tokenB",
          "type": "address"
        },
        {
          "internalType": "uint256",
          "name": "_liqidity",
          "type": "uint256"
        },
        {
          "internalType": "uint256",
          "name": "_amountAMin",
          "type": "uint256"
        },
        {
          "internalType": "uint256",
          "name": "_amountBMin",
          "type": "uint256"
        },
        {
          "internalType": "address",
          "name": "_to",
          "type": "address"
        },
        {
          "internalType": "uint256",
          "name": "deadline",
          "type": "uint256"
        }
      ],
      "name": "removeLiquidity",
      "outputs": [],
      "stateMutability": "nonpayable",
      "type": "function"
    },
    {
      "inputs": [],
      "name": "swapCount",
      "outputs": [
        {
          "internalType": "uint256",
          "name": "",
          "type": "uint256"
        }
      ],
      "stateMutability": "view",
      "type": "function"
    },
    {
      "inputs": [],
      "name": "uniswapRouter",
      "outputs": [
        {
          "internalType": "address",
          "name": "",
          "type": "address"
        }
      ],
      "stateMutability": "view",
      "type": "function"
    }
  ],
  "bytecode": "0x608060405234801561001057600080fd5b506040516109873803806109878339818101604052810190610032919061011c565b806000806101000a81548173ffffffffffffffffffffffffffffffffffffffff021916908373ffffffffffffffffffffffffffffffffffffffff16021790555033600160006101000a81548173ffffffffffffffffffffffffffffffffffffffff021916908373ffffffffffffffffffffffffffffffffffffffff16021790555050610149565b600080fd5b600073ffffffffffffffffffffffffffffffffffffffff82169050919050565b60006100e9826100be565b9050919050565b6100f9816100de565b811461010457600080fd5b50565b600081519050610116816100f0565b92915050565b600060208284031215610132576101316100b9565b5b600061014084828501610107565b91505092915050565b61082f806101586000396000f3fe608060405234801561001057600080fd5b50600436106100575760003560e01c80632eff0d9e1461005c578063735de9f71461007a57806376ad6497146100985780638da5cb5b146100b6578063baa2abde146100d4575b600080fd5b6100646100f0565b60405161007191906103e5565b60405180910390f35b6100826100f6565b60405161008f9190610441565b60405180910390f35b6100a061011a565b6040516100ad91906103e5565b60405180910390f35b6100be610120565b6040516100cb9190610441565b60405180910390f35b6100ee60048036038101906100e991906104b9565b610146565b005b60025481565b60008054906101000a900473ffffffffffffffffffffffffffffffffffffffff1681565b60035481565b600160009054906101000a900473ffffffffffffffffffffffffffffffffffffffff1681565b8673ffffffffffffffffffffffffffffffffffffffff1663095ea7b360008054906101000a900473ffffffffffffffffffffffffffffffffffffffff16866040518363ffffffff1660e01b81526004016101a192919061055b565b6020604051808303816000875af11580156101c0573d6000803e3d6000fd5b505050506040513d601f19601f820116820180604052508101906101e491906105bc565b610223576040517f08c379a000000000000000000000000000000000000000000000000000000000815260040161021a90610646565b60405180910390fd5b8573ffffffffffffffffffffffffffffffffffffffff1663095ea7b360008054906101000a900473ffffffffffffffffffffffffffffffffffffffff16856040518363ffffffff1660e01b815260040161027e92919061055b565b6020604051808303816000875af115801561029d573d6000803e3d6000fd5b505050506040513d601f19601f820116820180604052508101906102c191906105bc565b610300576040517f08c379a00000000000000000000000000000000000000000000000000000000081526004016102f7906106b2565b60405180910390fd5b60008054906101000a900473ffffffffffffffffffffffffffffffffffffffff1673ffffffffffffffffffffffffffffffffffffffff1663baa2abde888888888888886040518863ffffffff1660e01b815260040161036597969594939291906106d2565b60408051808303816000875af1158015610383573d6000803e3d6000fd5b505050506040513d601f19601f820116820180604052508101906103a79190610756565b50506001600360008282546103bc91906107c5565b9250508190555050505050505050565b6000819050919050565b6103df816103cc565b82525050565b60006020820190506103fa60008301846103d6565b92915050565b600073ffffffffffffffffffffffffffffffffffffffff82169050919050565b600061042b82610400565b9050919050565b61043b81610420565b82525050565b60006020820190506104566000830184610432565b92915050565b600080fd5b61046a81610420565b811461047557600080fd5b50565b60008135905061048781610461565b92915050565b610496816103cc565b81146104a157600080fd5b50565b6000813590506104b38161048d565b92915050565b600080600080600080600060e0888a0312156104d8576104d761045c565b5b60006104e68a828b01610478565b97505060206104f78a828b01610478565b96505060406105088a828b016104a4565b95505060606105198a828b016104a4565b945050608061052a8a828b016104a4565b93505060a061053b8a828b01610478565b92505060c061054c8a828b016104a4565b91505092959891949750929550565b60006040820190506105706000830185610432565b61057d60208301846103d6565b9392505050565b60008115159050919050565b61059981610584565b81146105a457600080fd5b50565b6000815190506105b681610590565b92915050565b6000602082840312156105d2576105d161045c565b5b60006105e0848285016105a7565b91505092915050565b600082825260208201905092915050565b7f4120617070726f76616c206661696c65642e0000000000000000000000000000600082015250565b60006106306012836105e9565b915061063b826105fa565b602082019050919050565b6000602082019050818103600083015261065f81610623565b9050919050565b7f4220617070726f76616c206661696c65642e0000000000000000000000000000600082015250565b600061069c6012836105e9565b91506106a782610666565b602082019050919050565b600060208201905081810360008301526106cb8161068f565b9050919050565b600060e0820190506106e7600083018a610432565b6106f46020830189610432565b61070160408301886103d6565b61070e60608301876103d6565b61071b60808301866103d6565b61072860a0830185610432565b61073560c08301846103d6565b98975050505050505050565b6000815190506107508161048d565b92915050565b6000806040838503121561076d5761076c61045c565b5b600061077b85828601610741565b925050602061078c85828601610741565b9150509250929050565b7f4e487b7100000000000000000000000000000000000000000000000000000000600052601160045260246000fd5b60006107d0826103cc565b91506107db836103cc565b92508282019050808211156107f3576107f2610796565b5b9291505056fea26469706673582212209006330fa5f4b17d4c7cbf6200b06d21134048eedbf1bdf1c30c46da6faf5fac64736f6c63430008180033",
  "linkReferences": {},
  "deployedLinkReferences": {}
}